{
  "_format": "hh-sol-artifact-1",
  "contractName": "WaveToken",
  "sourceName": "contracts/WaveToken.sol",
  "abi": [
    {
      "inputs": [],
      "stateMutability": "payable",
      "type": "constructor"
    },
    {
      "anonymous": false,
      "inputs": [
        {
          "indexed": true,
          "internalType": "address",
          "name": "from",
          "type": "address"
        },
        {
          "indexed": false,
          "internalType": "uint256",
          "name": "timestamp",
          "type": "uint256"
        },
        {
          "indexed": false,
          "internalType": "string",
          "name": "message",
          "type": "string"
        }
      ],
      "name": "NewWave",
      "type": "event"
    },
    {
      "inputs": [],
      "name": "getAllWaves",
      "outputs": [
        {
          "components": [
            {
              "internalType": "address",
              "name": "waver",
              "type": "address"
            },
            {
              "internalType": "string",
              "name": "message",
              "type": "string"
            },
            {
              "internalType": "uint256",
              "name": "timestamp",
              "type": "uint256"
            }
          ],
          "internalType": "struct WaveToken.Wave[]",
          "name": "",
          "type": "tuple[]"
        }
      ],
      "stateMutability": "view",
      "type": "function"
    },
    {
      "inputs": [],
      "name": "getTopWaver",
      "outputs": [
        {
          "internalType": "address",
          "name": "",
          "type": "address"
        },
        {
          "internalType": "uint256",
          "name": "",
          "type": "uint256"
        }
      ],
      "stateMutability": "view",
      "type": "function"
    },
    {
      "inputs": [],
      "name": "getTotalWaves",
      "outputs": [
        {
          "internalType": "uint256",
          "name": "",
          "type": "uint256"
        }
      ],
      "stateMutability": "view",
      "type": "function"
    },
    {
      "inputs": [],
      "name": "getWaves",
      "outputs": [
        {
          "internalType": "uint256",
          "name": "",
          "type": "uint256"
        }
      ],
      "stateMutability": "view",
      "type": "function"
    },
    {
      "inputs": [
        {
          "internalType": "string",
          "name": "_message",
          "type": "string"
        }
      ],
      "name": "wave",
      "outputs": [],
      "stateMutability": "nonpayable",
      "type": "function"
    }
  ],
  "bytecode": "0x60806040526200004f6040518060400160405280601a81526020017f426520736d6172742e20577269746520436f6e7472616374732e0000000000008152506200005d60201b6200096e1760201c565b6000600181905550620001f1565b620000fd816040516024016200007491906200016a565b6040516020818303038152906040527f41304fac000000000000000000000000000000000000000000000000000000007bffffffffffffffffffffffffffffffffffffffffffffffffffffffff19166020820180517bffffffffffffffffffffffffffffffffffffffffffffffffffffffff83818316178352505050506200010060201b60201c565b50565b60008151905060006a636f6e736f6c652e6c6f679050602083016000808483855afa5050505050565b600062000136826200018e565b62000142818562000199565b935062000154818560208601620001aa565b6200015f81620001e0565b840191505092915050565b6000602082019050818103600083015262000186818462000129565b905092915050565b600081519050919050565b600082825260208201905092915050565b60005b83811015620001ca578082015181840152602081019050620001ad565b83811115620001da576000848401525b50505050565b6000601f19601f8301169050919050565b6116b280620002016000396000f3fe608060405234801561001057600080fd5b50600436106100575760003560e01c8063449d46c01461005c57806387ec9b8d146100785780639a2cdc0814610097578063a9d42f7e146100b5578063bd43a908146100d3575b600080fd5b61007660048036038101906100719190610db4565b6100f1565b005b61008061065f565b60405161008e929190610ffa565b60405180910390f35b61009f610746565b6040516100ac9190611191565b60405180910390f35b6100bd610791565b6040516100ca9190611191565b60405180910390f35b6100db61081d565b6040516100e89190611023565b60405180910390f35b42601e600460003373ffffffffffffffffffffffffffffffffffffffff1673ffffffffffffffffffffffffffffffffffffffff1681526020019081526020016000205461013e91906112a3565b106040518060600160405280602a81526020016115c3602a913990610199576040517f08c379a00000000000000000000000000000000000000000000000000000000081526004016101909190611045565b60405180910390fd5b5042600460003373ffffffffffffffffffffffffffffffffffffffff1673ffffffffffffffffffffffffffffffffffffffff168152602001908152602001600020819055506000600360003373ffffffffffffffffffffffffffffffffffffffff1673ffffffffffffffffffffffffffffffffffffffff1681526020019081526020016000205414156102b6576102486040518060600160405280602c8152602001611651602c913933610a07565b3360026000600154815260200190815260200160002060006101000a81548173ffffffffffffffffffffffffffffffffffffffff021916908373ffffffffffffffffffffffffffffffffffffffff16021790555060018060008282546102ae91906112a3565b925050819055505b6001600360003373ffffffffffffffffffffffffffffffffffffffff1673ffffffffffffffffffffffffffffffffffffffff168152602001908152602001600020600082825461030691906112a3565b92505081905550600160008082825461031f91906112a3565b9250508190555061038b6040518060800160405280604381526020016115ed6043913933600360003373ffffffffffffffffffffffffffffffffffffffff1673ffffffffffffffffffffffffffffffffffffffff16815260200190815260200160002054600054610aa3565b600660405180606001604052803373ffffffffffffffffffffffffffffffffffffffff16815260200183815260200142815250908060018154018082558091505060019003906000526020600020906003020160009091909190915060008201518160000160006101000a81548173ffffffffffffffffffffffffffffffffffffffff021916908373ffffffffffffffffffffffffffffffffffffffff160217905550602082015181600101908051906020019061044a929190610ca9565b5060408201518160020155505060006064600554424461046a91906112a3565b61047491906112a3565b61047e9190611423565b90506104bf6040518060400160405280601681526020017f52616e646f6d20232067656e6572617465643a2025730000000000000000000081525082610b45565b80600581905550603281101561060b5761050e6040518060400160405280600781526020017f257320776f6e210000000000000000000000000000000000000000000000000081525033610a07565b6000655af3107a400090504781111561055c576040517f08c379a000000000000000000000000000000000000000000000000000000000815260040161055390611151565b60405180910390fd5b60003373ffffffffffffffffffffffffffffffffffffffff168260405161058290610fe5565b60006040518083038185875af1925050503d80600081146105bf576040519150601f19603f3d011682016040523d82523d6000602084013e6105c4565b606091505b5050905080610608576040517f08c379a00000000000000000000000000000000000000000000000000000000081526004016105ff90611171565b60405180910390fd5b50505b3373ffffffffffffffffffffffffffffffffffffffff167f5f7e16dc676677766a70e9c5628aa6c54ddb8b6e5188e2ae1e1f17f1ffbea71642846040516106539291906111ac565b60405180910390a25050565b6000806000806000905060005b6001548110156107165760006002600083815260200190815260200160002060009054906101000a900473ffffffffffffffffffffffffffffffffffffffff1690506000600360008373ffffffffffffffffffffffffffffffffffffffff1673ffffffffffffffffffffffffffffffffffffffff16815260200190815260200160002054905083811115610701578093508194505b5050808061070e906113da565b91505061066c565b5061073a604051806060016040528060218152602001611630602191398383610be1565b81819350935050509091565b60006107896040518060400160405280601781526020017f5765206861766520256420746f74616c20776176657321000000000000000000815250600054610b45565b600054905090565b600080600360003373ffffffffffffffffffffffffffffffffffffffff1673ffffffffffffffffffffffffffffffffffffffff1681526020019081526020016000205490506108166040518060400160405280601581526020017f2573206861732077617665642025732074696d657300000000000000000000008152503383610be1565b8091505090565b60606006805480602002602001604051908101604052809291908181526020016000905b8282101561096557838290600052602060002090600302016040518060600160405290816000820160009054906101000a900473ffffffffffffffffffffffffffffffffffffffff1673ffffffffffffffffffffffffffffffffffffffff1673ffffffffffffffffffffffffffffffffffffffff1681526020016001820180546108ca90611377565b80601f01602080910402602001604051908101604052809291908181526020018280546108f690611377565b80156109435780601f1061091857610100808354040283529160200191610943565b820191906000526020600020905b81548152906001019060200180831161092657829003601f168201915b5050505050815260200160028201548152505081526020019060010190610841565b50505050905090565b610a04816040516024016109829190611045565b6040516020818303038152906040527f41304fac000000000000000000000000000000000000000000000000000000007bffffffffffffffffffffffffffffffffffffffffffffffffffffffff19166020820180517bffffffffffffffffffffffffffffffffffffffffffffffffffffffff8381831617835250505050610c80565b50565b610a9f8282604051602401610a1d929190611067565b6040516020818303038152906040527f319af333000000000000000000000000000000000000000000000000000000007bffffffffffffffffffffffffffffffffffffffffffffffffffffffff19166020820180517bffffffffffffffffffffffffffffffffffffffffffffffffffffffff8381831617835250505050610c80565b5050565b610b3f84848484604051602401610abd94939291906110d5565b6040516020818303038152906040527fdaa394bd000000000000000000000000000000000000000000000000000000007bffffffffffffffffffffffffffffffffffffffffffffffffffffffff19166020820180517bffffffffffffffffffffffffffffffffffffffffffffffffffffffff8381831617835250505050610c80565b50505050565b610bdd8282604051602401610b5b929190611121565b6040516020818303038152906040527f9710a9d0000000000000000000000000000000000000000000000000000000007bffffffffffffffffffffffffffffffffffffffffffffffffffffffff19166020820180517bffffffffffffffffffffffffffffffffffffffffffffffffffffffff8381831617835250505050610c80565b5050565b610c7b838383604051602401610bf993929190611097565b6040516020818303038152906040527f07c81217000000000000000000000000000000000000000000000000000000007bffffffffffffffffffffffffffffffffffffffffffffffffffffffff19166020820180517bffffffffffffffffffffffffffffffffffffffffffffffffffffffff8381831617835250505050610c80565b505050565b60008151905060006a636f6e736f6c652e6c6f679050602083016000808483855afa5050505050565b828054610cb590611377565b90600052602060002090601f016020900481019282610cd75760008555610d1e565b82601f10610cf057805160ff1916838001178555610d1e565b82800160010185558215610d1e579182015b82811115610d1d578251825591602001919060010190610d02565b5b509050610d2b9190610d2f565b5090565b5b80821115610d48576000816000905550600101610d30565b5090565b6000610d5f610d5a84611201565b6111dc565b905082815260208101848484011115610d7757600080fd5b610d82848285611335565b509392505050565b600082601f830112610d9b57600080fd5b8135610dab848260208601610d4c565b91505092915050565b600060208284031215610dc657600080fd5b600082013567ffffffffffffffff811115610de057600080fd5b610dec84828501610d8a565b91505092915050565b6000610e018383610f77565b905092915050565b610e12816112f9565b82525050565b610e21816112f9565b82525050565b6000610e3282611242565b610e3c8185611265565b935083602082028501610e4e85611232565b8060005b85811015610e8a5784840389528151610e6b8582610df5565b9450610e7683611258565b925060208a01995050600181019050610e52565b50829750879550505050505092915050565b6000610ea78261124d565b610eb18185611281565b9350610ec1818560208601611344565b610eca81611510565b840191505092915050565b6000610ee08261124d565b610eea8185611292565b9350610efa818560208601611344565b610f0381611510565b840191505092915050565b6000610f1b603483611292565b9150610f2682611521565b604082019050919050565b6000610f3e602783611292565b9150610f4982611570565b604082019050919050565b6000610f61600083611276565b9150610f6c826115bf565b600082019050919050565b6000606083016000830151610f8f6000860182610e09565b5060208301518482036020860152610fa78282610e9c565b9150506040830151610fbc6040860182610fc7565b508091505092915050565b610fd08161132b565b82525050565b610fdf8161132b565b82525050565b6000610ff082610f54565b9150819050919050565b600060408201905061100f6000830185610e18565b61101c6020830184610fd6565b9392505050565b6000602082019050818103600083015261103d8184610e27565b905092915050565b6000602082019050818103600083015261105f8184610ed5565b905092915050565b600060408201905081810360008301526110818185610ed5565b90506110906020830184610e18565b9392505050565b600060608201905081810360008301526110b18186610ed5565b90506110c06020830185610e18565b6110cd6040830184610fd6565b949350505050565b600060808201905081810360008301526110ef8187610ed5565b90506110fe6020830186610e18565b61110b6040830185610fd6565b6111186060830184610fd6565b95945050505050565b6000604082019050818103600083015261113b8185610ed5565b905061114a6020830184610fd6565b9392505050565b6000602082019050818103600083015261116a81610f0e565b9050919050565b6000602082019050818103600083015261118a81610f31565b9050919050565b60006020820190506111a66000830184610fd6565b92915050565b60006040820190506111c16000830185610fd6565b81810360208301526111d38184610ed5565b90509392505050565b60006111e66111f7565b90506111f282826113a9565b919050565b6000604051905090565b600067ffffffffffffffff82111561121c5761121b6114e1565b5b61122582611510565b9050602081019050919050565b6000819050602082019050919050565b600081519050919050565b600081519050919050565b6000602082019050919050565b600082825260208201905092915050565b600081905092915050565b600082825260208201905092915050565b600082825260208201905092915050565b60006112ae8261132b565b91506112b98361132b565b9250827fffffffffffffffffffffffffffffffffffffffffffffffffffffffffffffffff038211156112ee576112ed611454565b5b828201905092915050565b60006113048261130b565b9050919050565b600073ffffffffffffffffffffffffffffffffffffffff82169050919050565b6000819050919050565b82818337600083830152505050565b60005b83811015611362578082015181840152602081019050611347565b83811115611371576000848401525b50505050565b6000600282049050600182168061138f57607f821691505b602082108114156113a3576113a26114b2565b5b50919050565b6113b282611510565b810181811067ffffffffffffffff821117156113d1576113d06114e1565b5b80604052505050565b60006113e58261132b565b91507fffffffffffffffffffffffffffffffffffffffffffffffffffffffffffffffff82141561141857611417611454565b5b600182019050919050565b600061142e8261132b565b91506114398361132b565b92508261144957611448611483565b5b828206905092915050565b7f4e487b7100000000000000000000000000000000000000000000000000000000600052601160045260246000fd5b7f4e487b7100000000000000000000000000000000000000000000000000000000600052601260045260246000fd5b7f4e487b7100000000000000000000000000000000000000000000000000000000600052602260045260246000fd5b7f4e487b7100000000000000000000000000000000000000000000000000000000600052604160045260246000fd5b6000601f19601f8301169050919050565b7f547279696e6720746f207769746864726177206d6f7265206d6f6e657920746860008201527f616e2074686520636f6e7472616374206861732e000000000000000000000000602082015250565b7f4661696c656420746f207769746864726177206d6f6e65792066726f6d20636f60008201527f6e74726163742e00000000000000000000000000000000000000000000000000602082015250565b5056fe506c656173652077616974203330207365636f6e6473206265666f726520776176696e6720616761696e576520676f74206f6e65206d6f726520776176652066726f6d2025732120732e68652077617665642025732074696d6573206f6e20257320746f74616c20776176657325732069732074686520746f70207761766572207769746820257320776176657352656769737465722025732077686f2068617320776176656420666f72207468652066697273742074696d65a26469706673582212202d5849822a41396adbd2667406792115fbe0e0895a51b3864ce37f76b8970a9464736f6c63430008040033",
  "linkReferences": {},
  "deployedLinkReferences": {}
}